{
  "_format": "hh-sol-artifact-1",
  "contractName": "Voting",
  "sourceName": "contracts/Voting.sol",
  "abi": [
    {
      "inputs": [],
      "stateMutability": "nonpayable",
      "type": "constructor"
    },
    {
      "inputs": [
        {
          "internalType": "string",
          "name": "_name",
          "type": "string"
        }
      ],
      "name": "addCandidate",
      "outputs": [],
      "stateMutability": "nonpayable",
      "type": "function"
    },
    {
      "inputs": [
        {
          "internalType": "uint256",
          "name": "",
          "type": "uint256"
        }
      ],
      "name": "candidates",
      "outputs": [
        {
          "internalType": "uint256",
          "name": "id",
          "type": "uint256"
        },
        {
          "internalType": "string",
          "name": "name",
          "type": "string"
        },
        {
          "internalType": "uint256",
          "name": "voteCount",
          "type": "uint256"
        }
      ],
      "stateMutability": "view",
      "type": "function"
    },
    {
      "inputs": [],
      "name": "candidatesCount",
      "outputs": [
        {
          "internalType": "uint256",
          "name": "",
          "type": "uint256"
        }
      ],
      "stateMutability": "view",
      "type": "function"
    },
    {
      "inputs": [
        {
          "internalType": "uint256",
          "name": "_candidateId",
          "type": "uint256"
        }
      ],
      "name": "getCandidate",
      "outputs": [
        {
          "internalType": "string",
          "name": "name",
          "type": "string"
        },
        {
          "internalType": "uint256",
          "name": "voteCount",
          "type": "uint256"
        }
      ],
      "stateMutability": "view",
      "type": "function"
    },
    {
      "inputs": [],
      "name": "getTotalVotes",
      "outputs": [
        {
          "internalType": "uint256",
          "name": "",
          "type": "uint256"
        }
      ],
      "stateMutability": "view",
      "type": "function"
    },
    {
      "inputs": [],
      "name": "owner",
      "outputs": [
        {
          "internalType": "address",
          "name": "",
          "type": "address"
        }
      ],
      "stateMutability": "view",
      "type": "function"
    },
    {
      "inputs": [],
      "name": "totalVotes",
      "outputs": [
        {
          "internalType": "uint256",
          "name": "",
          "type": "uint256"
        }
      ],
      "stateMutability": "view",
      "type": "function"
    },
    {
      "inputs": [
        {
          "internalType": "uint256",
          "name": "_candidateId",
          "type": "uint256"
        }
      ],
      "name": "vote",
      "outputs": [],
      "stateMutability": "nonpayable",
      "type": "function"
    },
    {
      "inputs": [
        {
          "internalType": "address",
          "name": "",
          "type": "address"
        }
      ],
      "name": "voters",
      "outputs": [
        {
          "internalType": "bool",
          "name": "",
          "type": "bool"
        }
      ],
      "stateMutability": "view",
      "type": "function"
    }
  ],
  "bytecode": "0x6080604052348015600f57600080fd5b5033600460006101000a81548173ffffffffffffffffffffffffffffffffffffffff021916908373ffffffffffffffffffffffffffffffffffffffff16021790555060006002819055506000600381905550610f9a806100706000396000f3fe608060405234801561001057600080fd5b50600436106100935760003560e01c806335b8e8201161006657806335b8e82014610122578063462e91ec146101535780638da5cb5b1461016f5780639a0e7d661461018d578063a3ec138d146101ab57610093565b80630121b93f146100985780630d15fd77146100b45780632d35a8a2146100d25780633477ee2e146100f0575b600080fd5b6100b260048036038101906100ad91906106e7565b6101db565b005b6100bc610356565b6040516100c99190610723565b60405180910390f35b6100da61035c565b6040516100e79190610723565b60405180910390f35b61010a600480360381019061010591906106e7565b610362565b604051610119939291906107ce565b60405180910390f35b61013c600480360381019061013791906106e7565b610414565b60405161014a92919061080c565b60405180910390f35b61016d60048036038101906101689190610971565b610543565b005b61017761064d565b60405161018491906109fb565b60405180910390f35b610195610673565b6040516101a29190610723565b60405180910390f35b6101c560048036038101906101c09190610a42565b61067d565b6040516101d29190610a8a565b60405180910390f35b600160003373ffffffffffffffffffffffffffffffffffffffff1673ffffffffffffffffffffffffffffffffffffffff16815260200190815260200160002060009054906101000a900460ff1615610268576040517f08c379a000000000000000000000000000000000000000000000000000000000815260040161025f90610af1565b60405180910390fd5b60008111801561027a57506003548111155b6102b9576040517f08c379a00000000000000000000000000000000000000000000000000000000081526004016102b090610b5d565b60405180910390fd5b60018060003373ffffffffffffffffffffffffffffffffffffffff1673ffffffffffffffffffffffffffffffffffffffff16815260200190815260200160002060006101000a81548160ff021916908315150217905550600080828152602001908152602001600020600201600081548092919061033690610bac565b91905055506002600081548092919061034e90610bac565b919050555050565b60025481565b60035481565b600060205280600052604060002060009150905080600001549080600101805461038b90610c23565b80601f01602080910402602001604051908101604052809291908181526020018280546103b790610c23565b80156104045780601f106103d957610100808354040283529160200191610404565b820191906000526020600020905b8154815290600101906020018083116103e757829003601f168201915b5050505050908060020154905083565b60606000808311801561042957506003548311155b610468576040517f08c379a000000000000000000000000000000000000000000000000000000000815260040161045f90610b5d565b60405180910390fd5b6000806000858152602001908152602001600020604051806060016040529081600082015481526020016001820180546104a190610c23565b80601f01602080910402602001604051908101604052809291908181526020018280546104cd90610c23565b801561051a5780601f106104ef5761010080835404028352916020019161051a565b820191906000526020600020905b8154815290600101906020018083116104fd57829003601f168201915b505050505081526020016002820154815250509050806020015181604001519250925050915091565b600460009054906101000a900473ffffffffffffffffffffffffffffffffffffffff1673ffffffffffffffffffffffffffffffffffffffff163373ffffffffffffffffffffffffffffffffffffffff16146105d3576040517f08c379a00000000000000000000000000000000000000000000000000000000081526004016105ca90610cc6565b60405180910390fd5b600360008154809291906105e690610bac565b9190505550604051806060016040528060035481526020018281526020016000815250600080600354815260200190815260200160002060008201518160000155602082015181600101908161063c9190610e92565b506040820151816002015590505050565b600460009054906101000a900473ffffffffffffffffffffffffffffffffffffffff1681565b6000600254905090565b60016020528060005260406000206000915054906101000a900460ff1681565b6000604051905090565b600080fd5b600080fd5b6000819050919050565b6106c4816106b1565b81146106cf57600080fd5b50565b6000813590506106e1816106bb565b92915050565b6000602082840312156106fd576106fc6106a7565b5b600061070b848285016106d2565b91505092915050565b61071d816106b1565b82525050565b60006020820190506107386000830184610714565b92915050565b600081519050919050565b600082825260208201905092915050565b60005b8381101561077857808201518184015260208101905061075d565b60008484015250505050565b6000601f19601f8301169050919050565b60006107a08261073e565b6107aa8185610749565b93506107ba81856020860161075a565b6107c381610784565b840191505092915050565b60006060820190506107e36000830186610714565b81810360208301526107f58185610795565b90506108046040830184610714565b949350505050565b600060408201905081810360008301526108268185610795565b90506108356020830184610714565b9392505050565b600080fd5b600080fd5b7f4e487b7100000000000000000000000000000000000000000000000000000000600052604160045260246000fd5b61087e82610784565b810181811067ffffffffffffffff8211171561089d5761089c610846565b5b80604052505050565b60006108b061069d565b90506108bc8282610875565b919050565b600067ffffffffffffffff8211156108dc576108db610846565b5b6108e582610784565b9050602081019050919050565b82818337600083830152505050565b600061091461090f846108c1565b6108a6565b9050828152602081018484840111156109305761092f610841565b5b61093b8482856108f2565b509392505050565b600082601f8301126109585761095761083c565b5b8135610968848260208601610901565b91505092915050565b600060208284031215610987576109866106a7565b5b600082013567ffffffffffffffff8111156109a5576109a46106ac565b5b6109b184828501610943565b91505092915050565b600073ffffffffffffffffffffffffffffffffffffffff82169050919050565b60006109e5826109ba565b9050919050565b6109f5816109da565b82525050565b6000602082019050610a1060008301846109ec565b92915050565b610a1f816109da565b8114610a2a57600080fd5b50565b600081359050610a3c81610a16565b92915050565b600060208284031215610a5857610a576106a7565b5b6000610a6684828501610a2d565b91505092915050565b60008115159050919050565b610a8481610a6f565b82525050565b6000602082019050610a9f6000830184610a7b565b92915050565b7f596f75206861766520616c726561647920766f74656400000000000000000000600082015250565b6000610adb601683610749565b9150610ae682610aa5565b602082019050919050565b60006020820190508181036000830152610b0a81610ace565b9050919050565b7f496e76616c69642063616e646964617465000000000000000000000000000000600082015250565b6000610b47601183610749565b9150610b5282610b11565b602082019050919050565b60006020820190508181036000830152610b7681610b3a565b9050919050565b7f4e487b7100000000000000000000000000000000000000000000000000000000600052601160045260246000fd5b6000610bb7826106b1565b91507fffffffffffffffffffffffffffffffffffffffffffffffffffffffffffffffff8203610be957610be8610b7d565b5b600182019050919050565b7f4e487b7100000000000000000000000000000000000000000000000000000000600052602260045260246000fd5b60006002820490506001821680610c3b57607f821691505b602082108103610c4e57610c4d610bf4565b5b50919050565b7f4f6e6c79206f776e65722063616e20706572666f726d2074686973206163746960008201527f6f6e000000000000000000000000000000000000000000000000000000000000602082015250565b6000610cb0602283610749565b9150610cbb82610c54565b604082019050919050565b60006020820190508181036000830152610cdf81610ca3565b9050919050565b60008190508160005260206000209050919050565b60006020601f8301049050919050565b600082821b905092915050565b600060088302610d487fffffffffffffffffffffffffffffffffffffffffffffffffffffffffffffffff82610d0b565b610d528683610d0b565b95508019841693508086168417925050509392505050565b6000819050919050565b6000610d8f610d8a610d85846106b1565b610d6a565b6106b1565b9050919050565b6000819050919050565b610da983610d74565b610dbd610db582610d96565b848454610d18565b825550505050565b600090565b610dd2610dc5565b610ddd818484610da0565b505050565b5b81811015610e0157610df6600082610dca565b600181019050610de3565b5050565b601f821115610e4657610e1781610ce6565b610e2084610cfb565b81016020851015610e2f578190505b610e43610e3b85610cfb565b830182610de2565b50505b505050565b600082821c905092915050565b6000610e6960001984600802610e4b565b1980831691505092915050565b6000610e828383610e58565b9150826002028217905092915050565b610e9b8261073e565b67ffffffffffffffff811115610eb457610eb3610846565b5b610ebe8254610c23565b610ec9828285610e05565b600060209050601f831160018114610efc5760008415610eea578287015190505b610ef48582610e76565b865550610f5c565b601f198416610f0a86610ce6565b60005b82811015610f3257848901518255600182019150602085019450602081019050610f0d565b86831015610f4f5784890151610f4b601f891682610e58565b8355505b6001600288020188555050505b50505050505056fea26469706673582212209a30a72ae247ceddda08f8196a8db0320b64ab57e352db55c6ed61e34d5c414a64736f6c634300081c0033",
  "linkReferences": {},
  "deployedLinkReferences": {}
}